:02000000952841
:10000800FF00030E8301BC000A08BB008A017008C8
:10001800A0000408A1008B130B1D452805302A02F7
:10002800031C1728AA012A08013A031D22280130B7
:10003800880022082B3E8400000887002A08023A1C
:10004800031D2D280230880026082B3E8400000856
:1000580087002A08033A031D382804308800280836
:100068002B3E8400000887002A08043A031D432811
:100078000830880037082B3E840000088700AA0A49
:100088000B118B172008F000210884003B088A0018
:0A0098003C0E8300FF0E7F0E0900EE
:0E00A200831203133A088A003908820008000E
:1000B00051208A110A128000840AB90A0319BA0A67
:0800C000F003031D582808009D
:1000C80083120313F801F9011030FC00710DF80DCB
:1000D800F90D7408F8027508031C750FF902031866
:1000E8007C287408F80775080318750FF9070310BA
:0A00F800F00DF10DFC0B6A28080062
:0A010200831603138701880108002B
:10010C008B170B178B168316031381120112811197
:0E011C000115811401143B308312810008008C
:10012A0083120313A201A3010B30A400A501A601A7
:10013A00A701A801A901AA01C030AB00F930AC009F
:10014A00A430AD00B030AE009930AF009230B000AC
:10015A008230B100F830B2008030B3009030B40081
:10016A003B30B500B601B701B801812086200A30BC
:10017A00F4000030F5002408F0002508F10064209E
:10018A007008A2007108A3000A30F4000030F500DC
:10019A002408F0002508F10064207808F0007908A6
:1001AA00F1007008A6007108A7000A30F4000030B8
:1001BA00F5003508F0003608F10064207008A80040
:1001CA007108A9000A30F4000030F5003508F00083
:1001DA003608F10064207808F0007908F100700808
:1001EA00B7007108B800B50A0319B60A0030360616
:1001FA00031D01293C303506031D1429B501B6013A
:10020A00A40A0319A50A00302506031D0E290D307C
:10021A002406031D14290130A4000030A5001A3059
:10022A00FB005E30FC006E30FD00FD0B1A29FC0B52
:0C023A001A29FB0B1A290000BC282229FD
:02400E004A2F37
:00000001FF
