:02000000C22C10
:10000800FF00030E8301BD000A08BE008A017008C4
:10001800A3007B08A2007C08A1007D08A0008B1328
:100028000B1D22283208023A031D2028B201AE0A0D
:100038000319AF0AA5242128B20A0B118B1C4428E6
:10004800061834280230FB004530FC00A930FD00BA
:10005800FD0B2C28FC0B2C28FB0B2C280000000087
:1000680000303406031D3A2800303306031D4128AA
:100078000130B3000030B4004328B301B4018B1041
:100088008B1D9628061A9528861E9528061F9528E2
:10009800861F95280230FB004530FC00A930FD0082
:1000A800FD0B5428FC0B5428FB0B542800000000BF
:1000B800B50A0319B60A3608003C031D6528350839
:1000C800033C03186A28B501B601952800303606A6
:1000D800031D702801303506031D9528061A95283A
:1000E800861E9528061F9528861F95280230FB0036
:1000F8004530FC00A930FD00FD0B8028FC0B802852
:10010800FB0B802800000000B00A0319B10A31086F
:10011800003C031D91283008023C03189528B001C3
:10012800B1018B118B172308F0002208FB0021086E
:10013800FC002008FD003E088A003D0E8300FF0EEB
:040148007F0E09001D
:10014C00710DF80DF90D7408F8027508031C750F84
:10015C00F902F00DF10D0F30FC00710DF80DF90DD9
:10016C007408701CBF28F8027508031C750FF9027F
:10017C00C428F80775080318750FF907F00DF10D71
:10018C00FC0BB3287018D0287408F80775080318EE
:08019C00750FF90700000800CF
:1001A400831203137408003A031DE1287508003A0A
:1001B400031DE128FF30F0007F30F1003A2983125B
:1001C4000313FD01F901F8017108700403190034E7
:1001D40071087506FA00FA1BFD09FB01F51FF728E3
:1001E400F409F509F40A0319F50AF11FFE28F009C8
:1001F400F109F00A0319F10A71087504FA00FA1BEF
:100204001329A6207B182629FD1F0034F009F109C3
:10021400F00A0319F10AF809F909F80A0319F90AA5
:100224000034F51F2229F11B1E297108F9007008FA
:10023400F800F101F0010629F101F001F00A00349F
:10024400F109F009FB0A0329F80A0319F90A7408E9
:100254007802031D062975087902031D0629F90190
:10026400F801F00A0319F10AF11F06290000FF340E
:02027400080080
:100276007E2901308312031388004908243E840036
:10028600000887000730FC007D30FD00FD0B492982
:10029600FC0B4929A029023088004908243E840025
:1002A600000887000730FC007D30FD00FD0B592952
:1002B600FC0B5929A029043088004908243E8400F3
:1002C600000887000730FC007D30FD00FD0B692922
:1002D600FC0B6929A029083088004908243E8400BF
:1002E600000887000730FC007D30FD00FD0B7929F2
:1002F600FC0B7929A0298312031300304C06031D39
:10030600862900304B0603193C2900304C06031D94
:100316008E2901304B0603194E2900304C06031D69
:10032600962902304B0603195E2900304C06031D40
:0C0336009E2903304B0603196E290800B5
:100342008030831203134A06F00080307002031DCE
:10035200AC29003049020318B7294908003CF000D3
:100362004A08031C013EF101F102BB294908F000D1
:060372004A08F10008003A
:10037800FF2901308312031388004908243E8400B2
:10038800000887000730FC007D30FD00FD0BCA29FE
:10039800FC0BCA29212A023088004908243E84001F
:1003A800000887000730FC007D30FD00FD0BDA29CE
:1003B800FC0BDA29212A043088004908243E8400ED
:1003C800000887000730FC007D30FD00FD0BEA299E
:1003D800FC0BEA29212A083088004908243E8400B9
:1003E800000887000730FC007D30FD00FD0BFA296E
:1003F800FC0BFA29212A8312031300304C06031D33
:10040800072A00304B060319BD2900304C06031D8E
:100418000F2A01304B060319CF2900304C06031D63
:10042800172A02304B060319DF2900304C06031D3A
:0C0438001F2A03304B060319EF290800AF
:10044400803083120313F000803046067002031DCF
:100454002D2A4508003C0318892A80304606F000FE
:1004640080307002031D382A0D3045020318892A92
:100474000A30F4000030F5004508F0004608F100A9
:10048400D2207008C9007108CA00CB01CC01BC217C
:100494000A30F4000030F5004508F0004608F10089
:1004A400D2207808F0007908F1007008C9007108BA
:1004B400CA000130CB000030CC00BC210A30F4006B
:1004C4000030F5004708F0004808F100D220700819
:1004D400C9007108CA000230CB000030CC00BC2136
:1004E4000A30F4000030F5004708F0004808F10035
:1004F400D2207808F0007908F1007008C90071086A
:10050400CA000330CB000030CC00BC21E12A0C30FF
:100514004502C9000030031C013E4602CA00A12165
:100524000A30F4000030F500D2207008C9007108C8
:10053400CA00CB01CC01BC210C304502C9000030FB
:10054400031C013E4602CA00A1210A30F400003017
:10055400F500D2207808F0007908F1007008C9008D
:100564007108CA000130CB000030CC00BC210A3035
:10057400F4000030F5004708F0004808F100D220EC
:100584007008C9007108CA000230CB000030CC00EA
:10059400BC210A30F4000030F5004708F000480898
:1005A400F100D2207808F0007908F1007008C90041
:1005B4007108CA000330CB000030CC00BC21080015
:0E05C400831203133C088A003B0882000800E3
:1005D2008030831203134606F00080307002031D40
:1005E200F42A643045020318452B0A30F400003027
:1005F200F5004508F0004608F100D2207008C90055
:100602007108CA00CB01CC013B210A30F400003052
:10061200F5004508F0004608F100D2207808F00005
:100622007908F1007008C9007108CA000130CB00D6
:100632000030CC003B210A30F4000030F5004708BE
:10064200F0004808F100D2207008C9007108CA0001
:100652000230CB000030CC003B210A30F4000030E5
:10066200F5004708F0004808F100D2207808F000B1
:100672007908F1007008C9007108CA000330CB0084
:100682000030CC003B21792BC901CA01CB01CC013E
:100692003B21C901CA010130CB000030CC003B2113
:1006A2000A30F4000030F5004708F0004808F10075
:1006B200D2207008C9007108CA000230CB00003095
:1006C200CC003B210A30F4000030F5004708F0006E
:1006D2004808F100D2207808F0007908F10070088B
:1006E200C9007108CA000330CB000030CC003B21A6
:0206F2000800FE
:1006F4008030831203134606F00080307002031D1D
:10070400852B183045020318D62B0A30F40000302C
:10071400F5004508F0004608F100D2207008C90031
:100724007108CA00CB01CC01BC210A30F4000030AE
:10073400F5004508F0004608F100D2207808F000E2
:100744007908F1007008C9007108CA000130CB00B3
:100754000030CC00BC210A30F4000030F50047081A
:10076400F0004808F100D2207008C9007108CA00DE
:100774000230CB000030CC00BC210A30F400003041
:10078400F5004708F0004808F100D2207808F0008E
:100794007908F1007008C9007108CA000330CB0061
:1007A4000030CC00BC210A2CC901CA01CB01CC0108
:1007B400BC21C901CA010130CB000030CC00BC21EE
:1007C4000A30F4000030F5004708F0004808F10052
:1007D400D2207008C9007108CA000230CB00003072
:1007E400CC00BC210A30F4000030F5004708F000CA
:1007F4004808F100D2207808F0007908F100700868
:10080400C9007108CA000330CB000030CC00BC2101
:020814000800DA
:10081600222C831203133F08C5004008C600410876
:10082600C7004208C8002222342C3F08C5004008F1
:10083600C6004108C7004208C8007A23342C831238
:10084600031300304406031D2A2C00304306031907
:100856000C2C00304406031D322C013043060319CC
:04086600182C080042
:10086A008B170B178B160B168B1583160313811216
:0C087A0001128111011181140114080009
:10088600812C013083120313880024088700073067
:10089600FC007D30FD00FD0B4E2CFC0B4E2C023077
:1008A6008800240887000730FC007D30FD00FD0B22
:1008B6005A2CFC0B5A2C0430880024088700073079
:1008C600FC007D30FD00FD0B662CFC0B662C083011
:1008D6008800240887000730FC007D30FD00FD0BF2
:1008E600722CFC0B722C932C3F08C5004008C600E6
:1008F6004108C7004208C800E922932C831203135B
:1009060000304406031D892C003043060319442C8D
:1009160000304406031D912C013043060319772C41
:020926000800C7
:0A09280083160313870188010800FD
:10093200E2228A110A128000840ABB0A0319BC0A45
:08094200F003031D992C0800CD
:10094A00831203132F08003C031DAD2C2E083B3CD9
:10095A000318C12CAE01AF01B90A0319BA0A3A0841
:10096A00003C031DBA2C39083B3C0318C12CB901C1
:0A097A00BA01B70A0319B80A080011
:10098400C03083120313A400F930A500A430A600DC
:10099400B030A7009930A8009230A9008230AA0094
:1009A400F830AB008030AC009030AD00AE01AF0148
:1009B400B001B101B201B301B401B501B6010B300C
:1009C400B700B8013230B900BA019424352400309C
:1009D40083123606031DF02C00303506031D002D4E
:1009E4003708BF003808C0003908C1003A08C200FF
:1009F4003308C3003408C4000B24272D0030360606
:100A0400031D062D01303506031D162D3908BF00C0
:100A14003A08C0002E08C1002F08C2003008C300E5
:100A24003108C4004324272D00303606031D1C2D35
:100A340002303506031D1F2D272D00303606031DF9
:0E0A4400252D03303506031D272DE92C282D06
:02400E004A2F37
:00000001FF
