:02000000F728DF
:10000800FF00030E8301C7000A08C6008A017008B2
:10001800A0008B130B1D5E283708023A031D5C28CD
:10002800B701BC0A0319BD0A3D08003C031D1E2880
:100038003C083B3C03185B28BC01BD01A10A03191D
:10004800A20A2208003C031D2B2821083B3C031868
:100058005B28A101A201B30A0319B40A4B28003096
:100068003406031D39280D303306031D3F2801309F
:10007800B3000030B4005B2800303406031D462866
:1000880018303306031D4A28B301B4015B28003039
:100098003B06031D512800303A0603193328003067
:1000A8003B06031D592801303A06031940285D28EC
:1000B800B70A0B118B1C6328BA09BB098B108B1765
:1000C8002008F00046088A00470E8300FF0E7F0EC6
:0200D80009001D
:0E00DA008312031345088A00440882000800C0
:1000E80083120313F801F9011030FC00710DF80DAB
:1000F800F90D7408F8027508031C750FF902031846
:100108008C287408F80775080318750FF907031089
:0A011800F00DF10DFC0B7A28080031
:0A012200831603138701880108000B
:10012C000A3083120313F4000030F5002108F000AC
:10013C002208F10074207008AF007108B0000800AC
:10014C008B170B178B160B168316031381120112C8
:0A015C008111011181100114080047
:100166006D208A110A128000840AC40A0319C50A7E
:08017600F003031DB32808008B
:10017E000A3083120313F4000030F5003308F00048
:10018E003408F10074207808F0007908F100700846
:08019E00B5007108B60008006D
:1001A6000A3083120313F4000030F5003308F00020
:1001B6003408F10074207008B1007108B20008001C
:1001C6000A3083120313F4000030F5002108F00012
:1001D6002208F10074207808F0007908F100700810
:0801E600A3007108A400080049
:1001EE0076219120A6200130831288004008253EFA
:1001FE008400000887000730FC007D30FD00FD0BF9
:10020E000629FC0B0629023088004208253E840090
:10021E00000887000730FC007D30FD00FD0B15291E
:10022E00FC0B1529043088003E08253E840000088A
:10023E0087000730FC007D30FD00FD0B2429FC0BF0
:10024E002429083088003808253E840000088700DD
:10025E000730FC007D30FD00FD0B3329FC0B3329EC
:10026E00D320BF209620E3203108C0003208C10001
:10027E003508C2003608C3002F08BE003008BF0084
:0C028E002308B8002408B900FA284C2905
:1002EC0021308400233083120313F0005230C400F9
:0802FC000130C500B320080029
:0402A40032340034BC
:0402A80000340034EA
:1002AC00C034F934A434B034993492348234F834F0
:0402BC0080349034C6
:0402C00000340034D2
:0402C40000340034CE
:0402C8000C340034BE
:0402CC0000340034C6
:0202D0000034F8
:0402D20000340034C0
:0402D60000340034BC
:0402DA0000340034B8
:0402DE0000340034B4
:0402E20000340034B0
:0402E60000340034AC
:02400E004A2F37
:00000001FF
