:02000000622F6D
:10000800FF00030E8301D5000A08D4008A01700896
:10001800A8007108A7007408A6007508A50078084C
:10002800A4007908A3007B08A2007C08A1007D0831
:10003800A0008B130B1D292843084C3A031D2728C1
:10004800C301B4262828C30A0B118B1C7A2806186A
:100058003B280230FB004530FC00A930FD00FD0BB9
:100068003328FC0B3328FB0B332800000000AB0AB5
:100078000319AC0A00302C06031D442801302B0656
:10008800031D4D280130AD000030AE00C801C90184
:10009800792800302C06031D532802302B06031D37
:1000A8005C28CE01CF010130C6000030C700792896
:1000B80000302C06031D622803302B06031D6B2815
:1000C800BD01BE010130C4000030C50079280030F0
:1000D8002C06031D712804302B06031D7928AB015B
:1000E800AC01AD01AE01C801C9018B100B1CF5298B
:1000F800061ADA280230FB004530FC00A930FD0062
:10010800FD0B8428FC0B8428FB0B842800000000CE
:1001180000302C06031D922800302B0603199D2859
:1001280000302C06031D9A2801302B0603199D2840
:10013800AC2800304906031DA32800304806031DDB
:10014800AA280130C8000030C900AC28C801C9017C
:1001580000302C06031DB22802302B06031DC328CD
:1001680000304706031DBA2800304606031DC12883
:100178000130C6000030C700C328C601C7010030DF
:100188002C06031DC92803302B06031DDA2800306E
:100198004506031DD12800304406031DD828013028
:1001A800C4000030C500DA28C401C501861A19291F
:1001B8000230FB004530FC00A930FD00FD0BE228B1
:1001C800FC0BE228FB0BE2280000000000302C06A4
:1001D800031DF02800302B060319FB2800302C06DD
:1001E800031DF82801302B060319FB280129C1013A
:1001F800C201AF01B001A901AA0100302C06031DFC
:10020800072902302B06031D0D29CC01CD01BF01A2
:10021800C00100302C06031D132903302B06031DD3
:100228001929D001D101CA01CB01061B4D29023081
:10023800FB004530FC00A930FD00FD0B2129FC0B1B
:100248002129FB0B21290000000000303C06031D7A
:100258002F2900303B06031D36290130BB00003032
:10026800BC004D2900303C06031D3C2901303B06EB
:10027800031D43290230BB000030BC004D2900306B
:100288003C06031D492902303B06031D4D29BB01CD
:10029800BC01861BF4290230FB004530FC00A93064
:1002A800FD00FD0B5529FC0B5529FB0B55290000BA
:1002B800000000303C06031D632901303B06031D86
:1002C8008C2900302E06031D6B2900302D060319DA
:1002D800762900302E06031D732901302D060319D7
:1002E80076298C292908013EF00000300318013EC8
:1002F8002A07F1001830F4000030F5004527780887
:10030800F0007908F1007008A9007108AA00A9296D
:1003180000303C06031D922902303B06031DA92923
:100328002F08013EF00000300318013E3007F100AD
:100338003C30F4000030F50045277808F0007908D3
:10034800F1007008AF007108B00000303C06031DD2
:10035800AF2901303B06031DCF2900303E06031D9F
:10036800B72900303D06031DCF294A08013EF00099
:1003780000300318013E4B07F1003C30F400003018
:10038800F50045277808F0007908F1007008CA00E0
:100398007108CB00F42900303C06031DD529023032
:1003A8003B06031DF42900302C06031DDD2903300C
:1003B8002B06031DF4295008013EF00000300318F5
:1003C800013E5107F1003C30F4000030F5004527AC
:1003D8007808F0007908F1007008D0007108D100A1
:1003E8000B108B172808F0002708F1002608F400E6
:1003F8002508F5002408F8002308F9002208FB0066
:100408002108FC002008FD0054088A00550E8300CE
:06041800FF0E7F0E09003B
:10041E00710DF80DF90D7408F8027508031C750FAF
:10042E00F902F00DF10D0F30FC00710DF80DF90D04
:10043E007408701C282AF8027508031C750FF9023F
:10044E002D2AF80775080318750FF907F00DF10D31
:10045E00FC0B1C2A7018392A7408F8077508031843
:08046E00750FF90700000800FA
:10047600831203137408003A031D4A2A7508003ACA
:10048600031D4A2AFF30F0007F30F100A32A8312B1
:100496000313FD01F901F801710870040319003412
:1004A60071087506FA00FA1BFD09FB01F51F602AA3
:1004B600F409F509F40A0319F50AF11F672AF00988
:1004C600F109F00A0319F10A71087504FA00FA1B1A
:1004D6007C2A0F227B188F2AFD1F0034F009F109B0
:1004E600F00A0319F10AF809F909F80A0319F90AD1
:1004F6000034F51F8B2AF11B872A7108F900700852
:10050600F800F101F0016F2AF101F001F00A003460
:10051600F109F009FB0A6C2AF80A0319F90A7408AA
:100526007802031D6F2A75087902031D6F2AF901E7
:10053600F801F00A0319F10AF11F6F2A0000FF34CF
:020546000800AB
:10054800E72A01308312031388006008313E8400D3
:10055800000887000730FC007D30FD00FD0BB22A43
:10056800FC0BB22A092B023088006008313E840057
:10057800000887000730FC007D30FD00FD0BC22A13
:10058800FC0BC22A092B043088006008313E840025
:10059800000887000730FC007D30FD00FD0BD22AE3
:1005A800FC0BD22A092B083088006008313E8400F1
:1005B800000887000730FC007D30FD00FD0BE22AB3
:1005C800FC0BE22A092B8312031300306306031D78
:1005D800EF2A003062060319A52A00306306031DBE
:1005E800F72A013062060319B72A00306306031D93
:1005F800FF2A023062060319C72A00306306031D6A
:0C060800072B033062060319D72A0800F4
:100614008030831203136106F00080307002031DE2
:10062400152B003060020318202B6008003CF000FA
:100634006108031C013EF101F102242B6008F00063
:060644006108F10008004E
:10064A00682B01308312031388005C08313E840052
:10065A00000887000730FC007D30FD00FD0B332BBE
:10066A00FC0B332B8A2B023088005C08313E840055
:10067A00000887000730FC007D30FD00FD0B432B8E
:10068A00FC0B432B8A2B043088005C08313E840023
:10069A00000887000730FC007D30FD00FD0B532B5E
:1006AA00FC0B532B8A2B083088005C08313E8400EF
:1006BA00000887000730FC007D30FD00FD0B632B2E
:1006CA00FC0B632B8A2B8312031300305F06031D76
:1006DA00702B00305E060319262B00305F06031DBF
:1006EA00782B01305E060319382B00305F06031D94
:1006FA00802B02305E060319482B00305F06031D6B
:0C070A00882B03305E060319582B0800F2
:10071600CE2B01308312031388005C08313E84001F
:10072600000887000730FC007D30FD00FD0B992B8B
:10073600FC0B992BF02B023088005C08313E8400BC
:10074600000887000730FC007D30FD00FD0BA92B5B
:10075600FC0BA92BF02B043088005C08313E84008A
:10076600000887000730FC007D30FD00FD0BB92B2B
:10077600FC0BB92BF02B083088005C08313E840056
:10078600000887000730FC007D30FD00FD0BC92BFB
:10079600FC0BC92BF02B8312031300305F06031DDD
:1007A600D62B00305E0603198C2B00305F06031D26
:1007B600DE2B01305E0603199E2B00305F06031DFB
:1007C600E62B02305E060319AE2B00305F06031DD2
:0C07D600EE2B03305E060319BE2B08005A
:1007E2008030831203135D06F00080307002031D17
:1007F200FC2B18305C0203184D2C0A30F400003038
:10080200F5005C08F0005D08F1003B227008E00092
:100812007108E100E201E301A4220A30F400003091
:10082200F5005C08F0005D08F1003B227808F0005A
:100832007908F1007008E0007108E1000130E2007F
:100842000030E300A4220A30F4000030F5005E0814
:10085200F0005F08F1003B227008E0007108E1003F
:100862000230E2000030E300A4220A30F40000303B
:10087200F5005E08F0005F08F1003B227808F00006
:100882007908F1007008E0007108E1000330E2002D
:100892000030E300A422812CE001E101E201E30146
:1008A200A422E001E1010130E2000030E300A422D1
:1008B2000A30F4000030F5005E08F0005F08F10035
:1008C2003B227008E0007108E1000230E2000030D3
:1008D200E300A4220A30F4000030F5005E08F000C4
:1008E2005F08F1003B227808F0007908F1007008F7
:1008F200E0007108E1000330E2000030E300A422CE
:020902000800EB
:10090400803083120313F00080305D067002031DF3
:100914008D2C5C08003C0318E92C80305D06F00047
:1009240080307002031D982C0D305C020318E92CF2
:100934000A30F4000030F5005C08F0005D08F100B6
:100944003B227008E0007108E100E201E301A42207
:100954000A30F4000030F5005C08F0005D08F10096
:100964003B227808F0007908F1007008E000710873
:10097400E1000130E2000030E300A4220A30F40078
:100984000030F5005E08F0005F08F1003B227008BB
:10099400E0007108E1000230E2000030E300A4222C
:1009A4000A30F4000030F5005E08F0005F08F10042
:1009B4003B227808F0007908F1007008E000710823
:1009C400E1000330E2000030E300A422412D0C30AA
:1009D4005C02E0000030031C013E5D02E1000A23DA
:1009E4000A30F4000030F5003B227008E000710882
:1009F400E100E201E301A4220C305C02E0000030DB
:100A0400031C013E5D02E1000A230A30F4000030B9
:100A1400F5003B227808F0007908F1007008E00046
:100A24007108E1000130E2000030E300A4220A3042
:100A3400F4000030F5005E08F0005F08F1003B228E
:100A44007008E0007108E1000230E2000030E300C9
:100A5400A4220A30F4000030F5005E08F0005F08BC
:100A6400F1003B227808F0007908F1007008E000FA
:100A74007108E1000330E2000030E300A422080022
:0E0A84008312031353088A00520882000800F0
:100A92008030831203135706F00080307002031D6A
:100AA200542D643056020318A52D0A30F40000308C
:100AB200F5005608F0005708F1003B227008DC00F0
:100AC2007108DD00DE01DF018B230A30F400003003
:100AD200F5005608F0005708F1003B227808F000B4
:100AE2007908F1007008DC007108DD000130DE00D9
:100AF2000030DF008B230A30F4000030F500580884
:100B0200F0005908F1003B227008DC007108DD009A
:100B12000230DE000030DF008B230A30F4000030A8
:100B2200F5005808F0005908F1003B227808F0005F
:100B32007908F1007008DC007108DD000330DE0086
:100B42000030DF008B23D92DDC01DD01DE01DF0166
:100B52008B23DC01DD010130DE000030DF008B235E
:100B62000A30F4000030F5005808F0005908F1008E
:100B72003B227008DC007108DD000230DE0000302C
:100B8200DF008B230A30F4000030F5005808F00033
:100B92005908F1003B227808F0007908F10070084A
:100BA200DC007108DD000330DE000030DF008B2343
:020BB200080039
:100BB4008030831203135706F00080307002031D47
:100BC400E52D643056020318362E0A30F400003046
:100BD400F5005608F0005708F1003B227008DC00CD
:100BE4007108DD00DE01DF0125230A30F400003046
:100BF400F5005608F0005708F1003B227808F00091
:100C04007908F1007008DC007108DD000130DE00B5
:100C14000030DF0025230A30F4000030F5005808C6
:100C2400F0005908F1003B227008DC007108DD0077
:100C34000230DE000030DF0025230A30F4000030EB
:100C4400F5005808F0005908F1003B227808F0003C
:100C54007908F1007008DC007108DD000330DE0063
:100C64000030DF0025236A2EDC01DD01DE01DF0117
:100C74002523DC01DD010130DE000030DF00252307
:100C84000A30F4000030F5005808F0005908F1006B
:100C94003B227008DC007108DD000230DE00003009
:100CA400DF0025230A30F4000030F5005808F00076
:100CB4005908F1003B227808F0007908F100700827
:100CC400DC007108DD000330DE000030DF00252386
:020CD400080016
:100CD600822E831203135608DC005708DD005808DD
:100CE600DE005908DF008224942E5608DC005708DF
:100CF600DD005808DE005908DF00F123942E831228
:100D0600031300305B06031D8A2E00305A060319B2
:100D16006C2E00305B06031D922E01305A06031915
:040D2600782E08001B
:0A0D2A0083160313870188010800F7
:100D340042258A110A128000840AD20A0319D30AAE
:080D4400F003031D9A2E0800C4
:100D4C008B170B178B160B168B158316031381122F
:0C0D5C000112811101158114011408001E
:100D680083120313C10A0319C20A4208003C031D77
:100D7800BF2E41083B3C0318D32EC101C201AF0A64
:100D88000319B00A3008003C031DCC2E2F083B3C49
:100D98000318D32EAF01B001A90A0319AA0A00301B
:100DA8002C06031DD92E02302B06031DF42E00300D
:100DB8004706031DE12E00304606031DF42ECC0A1B
:100DC8000319CD0A4D08003C031DEC2E4C083B3C92
:100DD8000318F32ECC01CD01BF0A0319C00A052F51
:100DE80000302C06031DFA2E02302B06031D052F9A
:100DF80000304706031D022F01304606031D052F4C
:100E0800442F00302C06031D0B2F03302B06031D27
:100E1800332F00304506031D132F00304406031DF1
:100E2800332F5108003C031D1B2F5008003C0318AA
:100E3800222F0130D002031CD103322F4B08003C73
:100E4800031D282F4A08003C0318322F0130CA021C
:100E5800031CCB033B30D0000030D100442F0030BE
:100E68002C06031D392F03302B06031D442F003099
:100E78004506031D412F01304406031D442F442F0E
:020E8800080060
:100E8A0083120313F801F9011030FC00710DF80DFB
:100E9A00F90D7408F8027508031C750FF902031896
:100EAA005D2F7408F80775080318750FF907031002
:0A0EBA00F00DF10DFC0B4B2F0800AA
:100EC400D8279526A626003083122C06031D6C2FE6
:100ED40000302B060319772F00302C06031D742FC6
:100EE40001302B060319772F852F2908D6002A08ED
:100EF400D7002F08D8003008D9002D08DA002E08B2
:100F0400DB006B26A82F00302C06031D8B2F02302C
:100F14002B06031D972F3F08D6004008D7004C0826
:100F2400D8004D08D900DA25A82F00302C06031D5F
:100F34009D2F03302B06031DA82F4A08D6004B080B
:100F4400D7005008D8005108D9004925652FA92F8A
:100FB00029308400293083120313F000AF30D200AF
:080FC0000730D3009A26080057
:040F5E000C3400341B
:040F62000034003423
:040F6600003400341F
:040F6A003B340034E0
:100F6E00C034F934A434B034993492348234F83421
:040F7E0080349034F7
:040F82000034003403
:040F860000340034FF
:040F8A0000340034FB
:040F8E0000340034F7
:020F9200003429
:040F940000340034F1
:040F980000340034ED
:040F9C0000340034E9
:040FA00002340034E3
:040FA40000340034E1
:040FA80000340034DD
:040FAC0000340034D9
:02400E004A2F37
:00000001FF
