:02000000C92C09
:10000800FF00030E8301BF000A08C0008A017008C0
:10001800A3007B08A2007C08A1007D08A0008B1328
:100028000B1D22283408023A031D2028B401B50A02
:100038000319B60A79242128B40A0B118B1C442809
:10004800061834280230FB004530FC00A930FD00BA
:10005800FD0B2C28FC0B2C28FB0B2C280000000087
:1000680000303C06031D3A2800303B06031D41289A
:100078000130BB000030BC004328BB01BC018B1021
:100088000B1C6A28061A6928861E6928061F692813
:10009800861F69280230FB004530FC00A930FD00AE
:1000A800FD0B5428FC0B5428FB0B542800000000BF
:1000B800B20A0319B30A3308003C031D6528320845
:1000C800013C03186928B201B3010B108B172308F0
:1000D800F0002208FB002108FC002008FD00400871
:0C00E8008A003F0E8300FF0E7F0E09000F
:1000F400710DF80DF90D7408F8027508031C750FDD
:10010400F902F00DF10D0F30FC00710DF80DF90D31
:100114007408701C9328F8027508031C750FF90203
:100124009828F80775080318750FF907F00DF10DF5
:10013400FC0B87287018A4287408F807750803189E
:08014400750FF9070000080027
:10014C00831203137408003A031DB5287508003A8E
:10015C00031DB528FF30F0007F30F1000E2983120B
:10016C000313FD01F901F80171087004031900343F
:10017C0071087506FA00FA1BFD09FB01F51FCB2867
:10018C00F409F509F40A0319F50AF11FD228F0094C
:10019C00F109F00A0319F10A71087504FA00FA1B47
:1001AC00E7287A207B18FA28FD1F0034F009F109A2
:1001BC00F00A0319F10AF809F909F80A0319F90AFE
:1001CC000034F51FF628F11BF2287108F9007008AD
:1001DC00F800F101F001DA28F101F001F00A003425
:1001EC00F109F009FB0AD728F80A0319F90A74086F
:1001FC007802031DDA2875087902031DDA28F90143
:10020C00F801F00A0319F10AF11FDA280000FF3493
:02021C000800D8
:10021E00522901308312031388004B08243E8400B8
:10022E00000887000730FC007D30FD00FD0B1D2906
:10023E00FC0B1D297429023088004B08243E8400D3
:10024E00000887000730FC007D30FD00FD0B2D29D6
:10025E00FC0B2D297429043088004B08243E8400A1
:10026E00000887000730FC007D30FD00FD0B3D29A6
:10027E00FC0B3D297429083088004B08243E84006D
:10028E00000887000730FC007D30FD00FD0B4D2976
:10029E00FC0B4D2974298312031300304E06031DE7
:1002AE005A2900304D060319102900304E06031D41
:1002BE00622901304D060319222900304E06031D16
:1002CE006A2902304D060319322900304E06031DED
:0C02DE00722903304D0603194229080064
:1002EA008030831203134C06F00080307002031D25
:1002FA00802900304B0203188B294B08003CF00080
:10030A004C08031C013EF101F1028F294B08F00051
:06031A004C08F100080090
:10032000D32901308312031388004B08243E840034
:10033000000887000730FC007D30FD00FD0B9E2982
:10034000FC0B9E29F529023088004B08243E8400CE
:10035000000887000730FC007D30FD00FD0BAE2952
:10036000FC0BAE29F529043088004B08243E84009C
:10037000000887000730FC007D30FD00FD0BBE2922
:10038000FC0BBE29F529083088004B08243E840068
:10039000000887000730FC007D30FD00FD0BCE29F2
:1003A000FC0BCE29F5298312031300304E06031DE2
:1003B000DB2900304D060319912900304E06031D3C
:1003C000E32901304D060319A32900304E06031D11
:1003D000EB2902304D060319B32900304E06031DE8
:0C03E000F32903304D060319C32908005F
:1003EC00803083120313F000803048067002031D26
:1003FC00012A4708003C03185D2A80304806F000AB
:10040C0080307002031D0C2A0D30470203185D2A40
:10041C000A30F4000030F5004708F0004808F100FD
:10042C00A6207008CB007108CC00CD01CE01902124
:10043C000A30F4000030F5004708F0004808F100DD
:10044C00A6207808F0007908F1007008CB0071083C
:10045C00CC000130CD000030CE0090210A30F400E9
:10046C000030F5004908F0004A08F100A620700899
:10047C00CB007108CC000230CD000030CE009021B2
:10048C000A30F4000030F5004908F0004A08F10089
:10049C00A6207808F0007908F1007008CB007108EC
:1004AC00CC000330CD000030CE009021B52A0C30AA
:1004BC004702CB000030031C013E4802CC007521E2
:1004CC000A30F4000030F500A6207008CB0071084B
:1004DC00CC00CD01CE0190210C304702CB00003076
:1004EC00031C013E4802CC0075210A30F400003098
:1004FC00F500A6207808F0007908F1007008CB0010
:10050C007108CC000130CD000030CE0090210A30B3
:10051C00F4000030F5004908F0004A08F100A6206C
:10052C007008CB007108CC000230CD000030CE003A
:10053C0090210A30F4000030F5004908F0004A0818
:10054C00F100A6207808F0007908F1007008CB00C3
:10055C007108CC000330CD000030CE009021080093
:0E056C00831203133E088A003D088200080037
:10057A008030831203134806F00080307002031D96
:10058A00C82A643047020318192B0A30F4000030D5
:10059A00F5004708F0004808F100A6207008CB00D3
:1005AA007108CC00CD01CE010F210A30F4000030D1
:1005BA00F5004708F0004808F100A6207808F00086
:1005CA007908F1007008CB007108CC000130CD0029
:1005DA000030CE000F210A30F4000030F50049083F
:1005EA00F0004A08F100A6207008CB007108CC0080
:1005FA000230CD000030CE000F210A30F400003066
:10060A00F5004908F0004A08F100A6207808F00031
:10061A007908F1007008CB007108CC000330CD00D6
:10062A000030CE000F214D2BCB01CC01CD01CE01E4
:10063A000F21CB01CC010130CD000030CE000F21BB
:10064A000A30F4000030F5004908F0004A08F100C9
:10065A00A6207008CB007108CC000230CD00003013
:10066A00CE000F210A30F4000030F5004908F000EE
:10067A004A08F100A6207808F0007908F10070080D
:10068A00CB007108CC000330CD000030CE000F2122
:02069A00080056
:10069C008030831203134806F00080307002031D73
:1006AC00592B183047020318AA2B0A30F4000030DB
:1006BC00F5004708F0004808F100A6207008CB00B0
:1006CC007108CC00CD01CE0190210A30F40000302D
:1006DC00F5004708F0004808F100A6207808F00063
:1006EC007908F1007008CB007108CC000130CD0006
:1006FC000030CE0090210A30F4000030F50049089B
:10070C00F0004A08F100A6207008CB007108CC005C
:10071C000230CD000030CE0090210A30F4000030C1
:10072C00F5004908F0004A08F100A6207808F0000E
:10073C007908F1007008CB007108CC000330CD00B3
:10074C000030CE009021DE2BCB01CC01CD01CE01AF
:10075C009021CB01CC010130CD000030CE00902196
:10076C000A30F4000030F5004908F0004A08F100A6
:10077C00A6207008CB007108CC000230CD000030F0
:10078C00CE0090210A30F4000030F5004908F0004A
:10079C004A08F100A6207808F0007908F1007008EA
:1007AC00CB007108CC000330CD000030CE0090217E
:0207BC00080033
:1007BE00F62B831203134108C7004208C8004308F2
:1007CE00C9004408CA00F621082C4108C700420897
:1007DE00C8004308C9004408CA004E23082C8312DF
:1007EE00031300304606031DFE2B00304506031989
:1007FE00E02B00304606031D062C0130450603197A
:04080E00EC2B0800C7
:100812008B170B178B160B168B158316031381126E
:0C08220001128111011181140114080061
:10082E00552C0130831203138800240887000730EB
:10083E00FC007D30FD00FD0B222CFC0B222C023027
:10084E008800240887000730FC007D30FD00FD0B7A
:10085E002E2CFC0B2E2C0430880024088700073029
:10086E00FC007D30FD00FD0B3A2CFC0B3A2C0830C1
:10087E008800240887000730FC007D30FD00FD0B4A
:10088E00462CFC0B462C672C4108C7004208C800BA
:10089E004308C9004408CA00BD22672C8312031303
:1008AE0000304606031D5D2C003045060319182C3A
:1008BE0000304606031D652C0130450603194B2CEE
:0208CE00080020
:0A08D0008316031387018801080056
:1008DA00B6228A110A128000840ABD0A0319BE0AC6
:0808EA00F003031D6D2C080052
:1008F2000030831203133C06031D812C00303B069B
:1009020003198C2C00303C06031D892C01303B0658
:1009120003198C2C952C00303306031D922C0130C8
:100922003206031D952CC82C00303C06031D9B2C5F
:1009320000303B060319A62C00303C06031DA32CF5
:1009420001303B060319A62CC82C00303306031DC8
:10095200AC2C00303206031DC82C3608003C031DA7
:10096200B42C35083B3C0318C82CB501B601B90AB2
:100972000319BA0A3A08003C031DC12C39083B3C52
:100982000318C82CB901BA01B70A0319B80A08003A
:10099200C03083120313A400F930A500A430A600CE
:1009A200B030A7009930A8009230A9008230AA0086
:1009B200F830AB008030AC009030AD00AE01AF013A
:1009C200B001B101B201B301B401B501B6010B30FE
:1009D200B700B8013230B900BA01BB01BC016824CA
:1009E2000924003083122F06031DF92C00302E0635
:1009F200031D092D3708C1003808C2003908C30099
:100A02003A08C4003B08C5003C08C600DF23302D6D
:100A120000302F06031D0F2D01302E06031D1F2D42
:100A22003908C1003A08C2003508C3003608C400BC
:100A32003008C5003108C6001724302D00302F06BB
:100A4200031D252D02302E06031D282D302D0030CA
:100A52002F06031D2E2D03302E06031D302DF22CE2
:020A6200312D34
:02400E004A2F37
:00000001FF
