:040000008A15002835
:10000800FF00030E8301D5000A08D4008A01700896
:10001800A8007108A7007408A6007508A50078084C
:10002800A4007908A3007B08A2007C08A1007D0831
:10003800A0008B130B1D292843080A3A031D272803
:10004800C301E7262828C30A0B118B1C7A28061837
:100058003B280230FB004530FC00A930FD00FD0BB9
:100068003328FC0B3328FB0B332800000000AF0AB1
:100078000319B00A00303006031D442801302F064A
:10008800031D4D280130CC000030CD00C801C90146
:10009800792800303006031D532802302F06031D2F
:1000A8005C28CE01CF010130C6000030C700792896
:1000B80000303006031D622803302F06031D6B280D
:1000C800BD01BE010130C4000030C50079280030F0
:1000D8003006031D712804302F06031D7928AF014F
:1000E800B001CC01CD01C801C9018B100B1CF52949
:1000F800061ADA280230FB004530FC00A930FD0062
:10010800FD0B8428FC0B8428FB0B842800000000CE
:1001180000303006031D922800302F0603199D2851
:1001280000303006031D9A2801302F0603199D2838
:10013800AC2800304906031DA32800304806031DDB
:10014800AA280130C8000030C900AC28C801C9017C
:1001580000303006031DB22802302F06031DC328C5
:1001680000304706031DBA2800304606031DC12883
:100178000130C6000030C700C328C601C7010030DF
:100188003006031DC92803302F06031DDA28003066
:100198004506031DD12800304406031DD828013028
:1001A800C4000030C500DA28C401C501861A0E292A
:1001B8000230FB004530FC00A930FD00FD0BE228B1
:1001C800FC0BE228FB0BE2280000000000303C0694
:1001D800031DF02800303B06031DF7280130BB0043
:1001E8000030BC000E2900303C06031DFD280130FC
:1001F8003B06031D04290230BB000030BC000E2959
:1002080000303C06031D0A2902303B06031D0E2957
:10021800BB01BC01061B4D290230FB004530FC0028
:10022800A930FD00FD0B1629FC0B1629FB0B16291E
:100238000000000000303006031D242900302F067E
:1002480003192F2900303006031D2C2901302F06F1
:1002580003192F293529C101C201BF01C001AD0110
:10026800AE0100303006031D3B2902302F06031D66
:100278004129D001D101CA01CB0100303006031D4C
:10028800472903302F06031D4D29AB01AC01A901F5
:10029800AA01861BF4290230FB004530FC00A93076
:1002A800FD00FD0B5529FC0B5529FB0B55290000BA
:1002B800000000303C06031D632901303B06031D86
:1002C8008C2900304D06031D6B2900304C0603199C
:1002D800762900304D06031D732901304C06031999
:1002E80076298C292D08013EF00000300318013EC4
:1002F8002E07F1001830F4000030F5008227780846
:10030800F0007908F1007008AD007108AE00A92965
:1003180000303C06031D922902303B06031DA92923
:100328003F08013EF00000300318013E4007F1008D
:100338003C30F4000030F50082277808F000790896
:10034800F1007008BF007108C00000303C06031DB2
:10035800AF2901303B06031DCF2900304F06031D8E
:10036800B72900304E06031DCF294A08013EF00088
:1003780000300318013E4B07F1003C30F400003018
:10038800F50082277808F0007908F1007008CA00A3
:100398007108CB00F42900303C06031DD529023032
:1003A8003B06031DF42900303006031DDD29023009
:1003B8002F06031DF4295008013EF00000300318F1
:1003C800013E5107F1003C30F4000030F50082276F
:1003D8007808F0007908F1007008D0007108D100A1
:1003E8000B108B172808F0002708F1002608F400E6
:1003F8002508F5002408F8002308F9002208FB0066
:100408002108FC002008FD0054088A00550E8300CE
:06041800FF0E7F0E09003B
:10041E00710DF80DF90D7408F8027508031C750FAF
:10042E00F902F00DF10D0F30FC00710DF80DF90D04
:10043E007408701C282AF8027508031C750FF9023F
:10044E002D2AF80775080318750FF907F00DF10D31
:10045E00FC0B1C2A7018392A7408F8077508031843
:08046E00750FF90700000800FA
:10047600831203137408003A031D4A2A7508003ACA
:10048600031D4A2AFF30F0007F30F100A32A8312B1
:100496000313FD01F901F801710870040319003412
:1004A60071087506FA00FA1BFD09FB01F51F602AA3
:1004B600F409F509F40A0319F50AF11F672AF00988
:1004C600F109F00A0319F10A71087504FA00FA1B1A
:1004D6007C2A0F227B188F2AFD1F0034F009F109B0
:1004E600F00A0319F10AF809F909F80A0319F90AD1
:1004F6000034F51F8B2AF11B872A7108F900700852
:10050600F800F101F0016F2AF101F001F00A003460
:10051600F109F009FB0A6C2AF80A0319F90A7408AA
:100526007802031D6F2A75087902031D6F2AF901E7
:10053600F801F00A0319F10AF11F6F2A0000FF34CF
:020546000800AB
:10054800E72A01308312031388006008313E8400D3
:10055800000887000730FC007D30FD00FD0BB22A43
:10056800FC0BB22A092B023088006008313E840057
:10057800000887000730FC007D30FD00FD0BC22A13
:10058800FC0BC22A092B043088006008313E840025
:10059800000887000730FC007D30FD00FD0BD22AE3
:1005A800FC0BD22A092B083088006008313E8400F1
:1005B800000887000730FC007D30FD00FD0BE22AB3
:1005C800FC0BE22A092B8312031300306306031D78
:1005D800EF2A003062060319A52A00306306031DBE
:1005E800F72A013062060319B72A00306306031D93
:1005F800FF2A023062060319C72A00306306031D6A
:0C060800072B033062060319D72A0800F4
:100614008030831203136106F00080307002031DE2
:10062400152B003060020318202B6008003CF000FA
:100634006108031C013EF101F102242B6008F00063
:060644006108F10008004E
:10064A008030831203135D06F00080307002031DB0
:10065A00302B18305C020318812B0A30F40000306A
:10066A00F5005C08F0005D08F1003B227008E0002C
:10067A007108E100E201E301A4220A30F40000302B
:10068A00F5005C08F0005D08F1003B227808F000F4
:10069A007908F1007008E0007108E1000130E20019
:1006AA000030E300A4220A30F4000030F5005E08AE
:1006BA00F0005F08F1003B227008E0007108E100D9
:1006CA000230E2000030E300A4220A30F4000030D5
:1006DA00F5005E08F0005F08F1003B227808F000A0
:1006EA007908F1007008E0007108E1000330E200C7
:1006FA000030E300A422B52BE001E101E201E301AD
:10070A00A422E001E1010130E2000030E300A4226A
:10071A000A30F4000030F5005E08F0005F08F100CE
:10072A003B227008E0007108E1000230E20000306C
:10073A00E300A4220A30F4000030F5005E08F0005D
:10074A005F08F1003B227808F0007908F100700890
:10075A00E0007108E1000330E2000030E300A42267
:02076A00080085
:10076C00803083120313F00080305D067002031D8D
:10077C00C12B5C08003C03181D2C80305D06F0007A
:10078C0080307002031DCC2B0D305C0203181D2C25
:10079C000A30F4000030F5005C08F0005D08F10050
:1007AC003B227008E0007108E100E201E301A422A1
:1007BC000A30F4000030F5005C08F0005D08F10030
:1007CC003B227808F0007908F1007008E00071080D
:1007DC00E1000130E2000030E300A4220A30F40012
:1007EC000030F5005E08F0005F08F1003B22700855
:1007FC00E0007108E1000230E2000030E300A422C6
:10080C000A30F4000030F5005E08F0005F08F100DB
:10081C003B227808F0007908F1007008E0007108BC
:10082C00E1000330E2000030E300A422752C0C3010
:10083C005C02E0000030031C013E5D02E1000A2373
:10084C000A30F4000030F5003B227008E00071081B
:10085C00E100E201E301A4220C305C02E000003074
:10086C00031C013E5D02E1000A230A30F400003053
:10087C00F5003B227808F0007908F1007008E000E0
:10088C007108E1000130E2000030E300A4220A30DC
:10089C00F4000030F5005E08F0005F08F1003B2228
:1008AC007008E0007108E1000230E2000030E30063
:1008BC00A4220A30F4000030F5005E08F0005F0856
:1008CC00F1003B227808F0007908F1007008E00094
:1008DC007108E1000330E2000030E300A4220800BC
:1008EC00B92C01308312031388005C08313E84005C
:1008FC00000887000730FC007D30FD00FD0B842CC8
:10090C00FC0B842CDB2C023088005C08313E84000C
:10091C00000887000730FC007D30FD00FD0B942C97
:10092C00FC0B942CDB2C043088005C08313E8400DA
:10093C00000887000730FC007D30FD00FD0BA42C67
:10094C00FC0BA42CDB2C083088005C08313E8400A6
:10095C00000887000730FC007D30FD00FD0BB42C37
:10096C00FC0BB42CDB2C8312031300305F06031D2D
:10097C00C12C00305E060319772C00305F06031D76
:10098C00C92C01305E060319892C00305F06031D4B
:10099C00D12C02305E060319992C00305F06031D22
:0C09AC00D92C03305E060319A92C0800AA
:0E09B8008312031353088A00520882000800BD
:1009C600262D01308312031388005C08313E840013
:1009D600000887000730FC007D30FD00FD0BF12C80
:1009E600FC0BF12C482D023088005C08313E840057
:1009F600000887000730FC007D30FD00FD0B012D4F
:100A0600FC0B012D482D043088005C08313E840023
:100A1600000887000730FC007D30FD00FD0B112D1E
:100A2600FC0B112D482D083088005C08313E8400EF
:100A3600000887000730FC007D30FD00FD0B212DEE
:100A4600FC0B212D482D8312031300305F06031D76
:100A56002E2D00305E060319E42C00305F06031DC0
:100A6600362D01305E060319F62C00305F06031D95
:100A76003E2D02305E060319062D00305F06031D6B
:0C0A8600462D03305E060319162D0800F3
:100A92000030831203132C06031D512D00302B0648
:100AA200031D7B2D00302A06031D592D0030290617
:100AB200031D7B2D880187010D30FB00AF30FC0048
:100AC200B630FD00FD0B632DFC0B632DFB0B632D7C
:100AD20000000F308800FF3087000D30FB00AF3080
:100AE200FC00B630FD00FD0B742DFC0B742DFB0BCE
:060AF200742D0000080055
:100AF8008030831203135706F00080307002031D04
:100B0800872D643056020318D82D0A30F4000030BF
:100B1800F5005608F0005708F1003B227008DC0089
:100B28007108DD00DE01DF01E3240A30F400003043
:100B3800F5005608F0005708F1003B227808F0004D
:100B48007908F1007008DC007108DD000130DE0072
:100B58000030DF00E3240A30F4000030F5005808C4
:100B6800F0005908F1003B227008DC007108DD0034
:100B78000230DE000030DF00E3240A30F4000030E9
:100B8800F5005808F0005908F1003B227808F000F9
:100B98007908F1007008DC007108DD000330DE0020
:100BA8000030DF00E3240C2EDC01DD01DE01DF0173
:100BB800E324DC01DD010130DE000030DF00E32446
:100BC8000A30F4000030F5005808F0005908F10028
:100BD8003B227008DC007108DD000230DE000030C6
:100BE800DF00E3240A30F4000030F5005808F00074
:100BF8005908F1003B227808F0007908F1007008E4
:100C0800DC007108DD000330DE000030DF00E32483
:020C18000800D2
:100C1A00242E831203135608DC005708DD005808F7
:100C2A00DE005908DF00B623362E5608DC005708C6
:100C3A00DD005808DE005908DF002523362E83120E
:100C4A00031300305B06031D2C2E00305A060319CD
:100C5A000E2E00305B06031D342E01305A0603198E
:040C6A001A2E080036
:100C6E008B170B178B160B168B158316031381120E
:0C0C7E0001128111011581100110080005
:0A0C8A008316031387018801080098
:100C9400DC248A110A128000840AD20A0319D30AB6
:080CA400F003031D4A2E0800B5
:100CAC008030831203135706F00080307002031D4E
:100CBC00612E643056020318B22E0A30F400003054
:100CCC00F5005608F0005708F1003B227008DC00D4
:100CDC007108DD00DE01DF0176240A30F4000030FB
:100CEC00F5005608F0005708F1003B227808F00098
:100CFC007908F1007008DC007108DD000130DE00BD
:100D0C000030DF0076240A30F4000030F50058087B
:100D1C00F0005908F1003B227008DC007108DD007E
:100D2C000230DE000030DF0076240A30F4000030A0
:100D3C00F5005808F0005908F1003B227808F00043
:100D4C007908F1007008DC007108DD000330DE006A
:100D5C000030DF007624E62EDC01DD01DE01DF0150
:100D6C007624DC01DD010130DE000030DF0076246A
:100D7C000A30F4000030F5005808F0005908F10072
:100D8C003B227008DC007108DD000230DE00003010
:100D9C00DF0076240A30F4000030F5005808F0002B
:100DAC005908F1003B227808F0007908F10070082E
:100DBC00DC007108DD000330DE000030DF0076243B
:020DCC0008001D
:100DCE0083120313C10A0319C20A4208003C031D11
:100DDE00F22E41083B3C0318062FC101C201BF0A87
:100DEE000319C00A4008003C031DFF2E3F083B3C80
:100DFE000318062FBF01C001AD0A0319AE0A003059
:100E0E003006031D0C2F02302F06031D272F003036
:100E1E004706031D142F00304606031D272FD00A48
:100E2E000319D10A5108003C031D1F2F50083B3CEB
:100E3E000318262FD001D101CA0A0319CB0A382F65
:100E4E0000303006031D2D2F02302F06031D382FC4
:100E5E0000304706031D352F01304606031D382F7F
:100E6E00812F00303006031D3E2F03302F06031D49
:100E7E00662F00304506031D462F00304406031D25
:100E8E00662F2C08003C031D4E2F2B08003C031828
:100E9E00552F0130AB02031CAC03652F2A08003C12
:100EAE00031D5B2F2908003C0318652F0130A90292
:100EBE00031CAA033B30AB000030AC00772F003090
:100ECE003006031D6C2F03302F06031D772F0030C5
:100EDE004506031D742F01304406031D772F812F05
:100EEE0000303006031D7D2F04302F06031D802F8A
:060EFE00812F812F080086
:100F040083120313F801F9011030FC00710DF80D80
:100F1400F90D7408F8027508031C750FF90203181B
:100F24009A2F7408F80775080318750FF90703104A
:0A0F3400F00DF10DFC0B882F0800F2
:100F900029308400293083120313F0009F30D200DF
:080FA0000730D3004A260800C7
:101000008A11C8278A158A1145268A158A1137261A
:101010008A15003083123006031D102800302F0679
:1010200003191B2800303006031D182801302F0635
:1010300003191B282B282D08D6002E08D7003F089F
:10104000D8004008D9004C08DA004D08DB008A11AE
:101050000D268A15552800303006031D3128023030
:101060002F06031D3F284A08D6004B08D70050081A
:10107000D8005108D9008A1156268A155528003003
:101080003006031D452803302F06031D5528290867
:10109000D6002A08D7002B08D8002C08D9008A11BE
:0E10A0007C258A158A1149258A1509285628AB
:040F3E000234003445
:040F42000034003443
:040F46000C34003433
:040F4A00003400343B
:100F4E00C034F934A434B034993492348234F83441
:040F5E008034903417
:040F62000034003423
:040F6600003400341F
:040F6A0032340034E9
:040F6E000034003417
:020F7200003449
:040F74000034003411
:040F7800003400340D
:040F7C000034003409
:040F80000034003405
:040F84000034003401
:040F880000340034FD
:040F8C0000340034F9
:02400E004A2F37
:00000001FF
