:02000000E029F5
:10000800FF00030E8301B5000A08B6008A017008D4
:10001800A0000B1C20280B10861B202800302E0661
:10002800031D182800302D06031D1E280130AD00C1
:10003800AE012028AD01AE012008F00036088A0084
:0A004800350E8300FF0E7F0E090045
:10005200710DF80DF90D7408F8027508031C750F7F
:10006200F902F00DF10D0F30FC00710DF80DF90DD4
:100072007408701C4228F8027508031C750FF902F7
:100082004728F80775080318750FF907F00DF10DE9
:10009200FC0B3628701853287408F80775080318E3
:0800A200750FF90700000800CA
:1000AA009C280E308312031388003B08213E8400EB
:1000BA00000887004130FC00EE30FD00FD0B63288C
:1000CA00FC0B63280000BE280D3088003B08213E47
:1000DA008400000887004130FC00EE30FD00FD0B73
:1000EA007428FC0B74280000BE280B3088003B08DB
:1000FA00213E8400000887004130FC00EE30FD00FC
:10010A00FD0B8528FC0B85280000BE2807308800D7
:10011A003B08213E8400000887004130FC00EE3095
:10012A00FD00FD0B9628FC0B96280000BE288312C2
:10013A00031300303E06031DA42801303D060319AF
:10014A00562800303E06031DAC2802303D0603192E
:10015A00692800303E06031DB42803303D06031902
:10016A007A2800303E06031DBC2804303D060319D8
:04017A008B280800C6
:0E017E008312031332088A0031088200080041
:10018C00831203137408003A031DD5287508003A2E
:10019C00031DD528FF30F0007F30F1002E2983128B
:1001AC000313FD01F901F8017108700403190034FF
:1001BC0071087506FA00FA1BFD09FB01F51FEB2807
:1001CC00F409F509F40A0319F50AF11FF228F009EC
:1001DC00F109F00A0319F10A71087504FA00FA1B07
:1001EC00072929207B181A29FD1F0034F009F10971
:1001FC00F00A0319F10AF809F909F80A0319F90ABE
:10020C000034F51F1629F11B12297108F90070082A
:10021C00F800F101F001FA28F101F001F00A0034C4
:10022C00F109F009FB0AF728F80A0319F90A74080E
:10023C007802031DFA2875087902031DFA28F901C2
:10024C00F801F00A0319F10AF11FFA280000FF3433
:02025C00080098
:10025E00BF208A110A128000840AB10A0319B20A59
:08026E00F003031D2F29080015
:1002760083120313B301B40180303406F0008030DA
:100286007002031D48291930330203189E290A30CB
:10029600F4000030F5003708F0003808F100C620F9
:1002A6007008BB007108BC000130BD000030BE0004
:1002B60055200A30F4000030F5003708F000380801
:1002C600F100C6207808F0007908F1007008BB003C
:1002D6007108BC000230BD000030BE0055200A3057
:1002E600F4000030F5003908F0003A08F100C620A5
:1002F6007008BB007108BC000330BD000030BE00B2
:1003060055200A30F4000030F5003908F0003A08AC
:10031600F100C6207808F0007908F1007008BB00EB
:100326007108BC000430BD000030BE005520B30A81
:080336000319B40A3F29080075
:10033E00803083120313F000803030067002031DEC
:10034E00AA292F083B3C0318D629AF01B001AB0AEE
:10035E000319AC0A00302E06031DB72900302D06F6
:10036E00031DC9298030F00080302C067002031D59
:10037E00C2292B080C3C0318C8290130AB000030F1
:10038E00AC00D6298030F00080302C067002031DA0
:10039E00D2292B08173C0318D629AB01AC01AF0AA2
:0603AE000319B00A08006B
:0C03B400831603138617870188010800D8
:1003C0003F3083120313A1000630A2005B30A3006C
:1003D0004F30A4006630A5006D30A6007D30A70028
:1003E0000730A8007F30A9006F30AA000C30AB00A6
:1003F000AC01AD01AE013B30AF00B001DA21831298
:100400002B08B7002C08B8002F08B9003008BA0034
:100410003B218B170B178B150B108316811783123B
:100420002B08B7002C08B8002F08B9003008BA0014
:100430003B219F210230FB004530FC00A930FD002C
:10044000FD0B202AFC0B202AFB0B202A00000000B9
:040450000F2A292A1C
:02400E004A2F37
:00000001FF
