:02000000B12D20
:10000800FF00030E8301C6000A08C5008A017008B4
:10001800A3007B08A2007C08A1007D08A0008B1328
:100028000B1D22284008023A031D2028C001BC0AE3
:100038000319BD0AC8242128C00A0B118B1C4428A7
:10004800061834280230FB004530FC00A930FD00BA
:10005800FD0B2C28FC0B2C28FB0B2C280000000087
:1000680000303F06031D3A2800303E06031D412894
:100078000130BE000030BF004328BE01BF018B1015
:100088000B1CB928061A6928861E6928061F6928C4
:10009800861F69280230FB004530FC00A930FD00AE
:1000A800FD0B5428FC0B5428FB0B542800000000BF
:1000B800BA0A0319BB0A3B08003C031D65283A0825
:1000C800013C03186928BA01BB01061E8D28861A4F
:1000D8008D28061F8D28861F8D280230FB0045308D
:1000E800FC00A930FD00FD0B7728FC0B7728FB0BE3
:1000F800772800000000B80A0319B90A3908003C3B
:10010800031D88283808033C03188C28B801B90156
:100118005B25061AB828861EB828061FB828861B2D
:10012800B8280230FB004530FC00A930FD00FD0B6B
:100138009B28FC0B9B28FB0B9B2800000000003031
:100148003F06031DA92802303E060319B6280230CF
:10015800BE000030BF00B401B501B601B701B80157
:10016800B901B828BE01BF010B108B172308F00096
:100178002208FB002108FC002008FD0045088A0031
:0A018800460E8300FF0E7F0E0900F3
:10019200710DF80DF90D7408F8027508031C750F3E
:1001A200F902F00DF10D0F30FC00710DF80DF90D93
:1001B2007408701CE228F8027508031C750FF90216
:1001C200E728F80775080318750FF907F00DF10D08
:1001D200FC0BD6287018F3287408F8077508031862
:0801E200750FF9070000080089
:1001EA00831203137408003A031D04297508003AA0
:1001FA00031D0429FF30F0007F30F1005D298312CE
:10020A000313FD01F901F8017108700403190034A0
:10021A0071087506FA00FA1BFD09FB01F51F1A2978
:10022A00F409F509F40A0319F50AF11F2129F0095D
:10023A00F109F00A0319F10A71087504FA00FA1BA8
:10024A003629C9207B184929FD1F0034F009F10914
:10025A00F00A0319F10AF809F909F80A0319F90A5F
:10026A000034F51F4529F11B41297108F90070086E
:10027A00F800F101F0012929F101F001F00A003436
:10028A00F109F009FB0A2629F80A0319F90A740880
:10029A007802031D292975087902031D2929F90104
:1002AA00F801F00A0319F10AF11F29290000FF34A5
:0202BA0008003A
:1002BC00A12901308312031388005108243E8400C5
:1002CC00000887000730FC007D30FD00FD0B6C2919
:1002DC00FC0B6C29C329023088005108243E840091
:1002EC00000887000730FC007D30FD00FD0B7C29E9
:1002FC00FC0B7C29C329043088005108243E84005F
:10030C00000887000730FC007D30FD00FD0B8C29B8
:10031C00FC0B8C29C329083088005108243E84002A
:10032C00000887000730FC007D30FD00FD0B9C2988
:10033C00FC0B9C29C3298312031300305406031DA4
:10034C00A9290030530603195F2900305406031DF8
:10035C00B129013053060319712900305406031DCD
:10036C00B929023053060319812900305406031DA4
:0C037C00C1290330530603199129080021
:100388008030831203135206F00080307002031D80
:10039800CF29003051020318DA295108003CF00037
:1003A8005208031C013EF101F102DE295108F00058
:0603B8005208F1000800EC
:1003BE00222A01308312031388005108243E840040
:1003CE00000887000730FC007D30FD00FD0BED2995
:1003DE00FC0BED29442A023088005108243E84008B
:1003EE00000887000730FC007D30FD00FD0BFD2965
:1003FE00FC0BFD29442A043088005108243E840059
:10040E00000887000730FC007D30FD00FD0B0D2A33
:10041E00FC0B0D2A442A083088005108243E840023
:10042E00000887000730FC007D30FD00FD0B1D2A03
:10043E00FC0B1D2A442A8312031300305406031D9D
:10044E002A2A003053060319E02900305406031DF2
:10045E00322A013053060319F22900305406031DC7
:10046E003A2A023053060319022A00305406031D9D
:0C047E00422A033053060319122A08001A
:10048A00803083120313F00080304E067002031D81
:10049A00502A4D08003C0318AC2A80304E06F00062
:1004AA0080307002031D5B2A0D304D020318AC2AFE
:1004BA000A30F4000030F5004D08F0004E08F10053
:1004CA00F5207008D1007108D200D301D401DF21D0
:1004DA000A30F4000030F5004D08F0004E08F10033
:1004EA00F5207808F0007908F1007008D100710849
:1004FA00D2000130D3000030D400DF210A30F400EA
:10050A000030F5004F08F0005008F100F52070089F
:10051A00D1007108D2000230D3000030D400DF21AC
:10052A000A30F4000030F5004F08F0005008F100DE
:10053A00F5207808F0007908F1007008D1007108F8
:10054A00D2000330D3000030D400DF21042B0C305A
:10055A004D02D1000030031C013E4E02D200C421DC
:10056A000A30F4000030F500F5207008D100710857
:10057A00D200D301D401DF210C304D02D10000306A
:10058A00031C013E4E02D200C4210A30F40000309E
:10059A00F500F5207808F0007908F1007008D1001C
:1005AA007108D2000130D3000030D400DF210A30B4
:1005BA00F4000030F5004F08F0005008F100F52073
:1005CA007008D1007108D2000230D3000030D40084
:1005DA00DF210A30F4000030F5004F08F00050081F
:1005EA00F100F5207808F0007908F1007008D100D0
:1005FA007108D2000330D3000030D400DF21080094
:0E060A008312031344088A004308820008008C
:100618008030831203134E06F00080307002031DF1
:10062800172B64304D020318682B0A30F400003091
:10063800F5004D08F0004E08F100F5207008D100D3
:100648007108D200D301D4015E210A30F4000030D1
:10065800F5004D08F0004E08F100F5207808F0008C
:100668007908F1007008D1007108D2000130D30078
:100678000030D4005E210A30F4000030F5004F0845
:10068800F0005008F100F5207008D1007108D20080
:100698000230D3000030D4005E210A30F40000306C
:1006A800F5004F08F0005008F100F5207808F00038
:1006B8007908F1007008D1007108D2000330D30026
:1006C8000030D4005E219C2BD101D201D301D4018A
:1006D8005E21D101D2010130D3000030D4005E2167
:1006E8000A30F4000030F5004F08F0005008F1001F
:1006F800F5207008D1007108D2000230D300003014
:10070800D4005E210A30F4000030F5004F08F000F4
:100718005008F100F5207808F0007908F100700819
:10072800D1007108D2000330D3000030D4005E211C
:020738000800B7
:10073A008030831203134E06F00080307002031DCE
:10074A00A82B18304D020318F92B0A30F400003098
:10075A00F5004D08F0004E08F100F5207008D100B0
:10076A007108D200D301D401DF210A30F40000302D
:10077A00F5004D08F0004E08F100F5207808F00069
:10078A007908F1007008D1007108D2000130D30055
:10079A000030D400DF210A30F4000030F5004F08A1
:1007AA00F0005008F100F5207008D1007108D2005D
:1007BA000230D3000030D400DF210A30F4000030C8
:1007CA00F5004F08F0005008F100F5207808F00015
:1007DA007908F1007008D1007108D2000330D30003
:1007EA000030D400DF212D2CD101D201D301D40154
:1007FA00DF21D101D2010130D3000030D400DF2142
:10080A000A30F4000030F5004F08F0005008F100FB
:10081A00F5207008D1007108D2000230D3000030F0
:10082A00D400DF210A30F4000030F5004F08F00050
:10083A005008F100F5207808F0007908F1007008F6
:10084A00D1007108D2000330D3000030D400DF2178
:02085A00080094
:10085C008B170B178B160B168B1583160313811224
:0C086C0001128111011181140114080017
:10087800532C831203134708CD004808CE004908BB
:10088800CF004A08D0004522652C4708CD0048080B
:10089800CE004908CF004A08D0009D23652C83125A
:1008A800031300304C06031D5B2C00304B06031964
:1008B8003D2C00304C06031D632C01304B060319F8
:0408C800492C0800AF
:1008CC00A42C0130831203138800240887000730FE
:1008DC00FC007D30FD00FD0B712CFC0B712C0230EB
:1008EC008800240887000730FC007D30FD00FD0BDC
:1008FC007D2CFC0B7D2C04308800240887000730ED
:10090C00FC007D30FD00FD0B892CFC0B892C083084
:10091C008800240887000730FC007D30FD00FD0BAB
:10092C00952CFC0B952CB62C4708CD004808CE0016
:10093C004908CF004A08D0000C23B62C83120313AD
:10094C0000304C06031DAC2C00304B060319672CF1
:10095C0000304C06031DB42C01304B0603199A2CA5
:02096C00080081
:0A096E0083160313870188010800B7
:1009780005238A110A128000840AC30A0319C40ACB
:08098800F003031DBC2C080064
:100990000030831203133F06031DD02C00303E06A7
:1009A0000319DB2C00303F06031DD82C01303E0616
:1009B0000319DB2C252D00303B06031DE12C0230F2
:1009C0003A06031D252D00303506031DE92C0130A4
:1009D0003406031D032D00303906031DF12C0030B1
:1009E0003806031DF72CAE0A0319AF0A022D00309A
:1009F0003906031DFD2C01303806031D022DB20AF5
:100A00000319B30A242D00303706031D092D0130C8
:100A10003606031D242D00303906031D112D00302C
:100A20003806031D182D0130AE02031CAF03242D20
:100A300000303906031D1E2D01303806031D242DFC
:100A40000130B202031CB3035A2D00303F06031DD0
:100A50002B2D00303E060319362D00303F06031DB6
:100A6000332D01303E060319362D592D00303B063B
:100A7000031D3C2D00303A06031D592D3D08003C56
:100A8000031D442D3C083B3C0318582DBC01BD01FF
:100A9000B20A0319B30A3308003C031D512D320872
:100AA0003B3C0318582DB201B301AE0A0319AF0A3B
:060AB0005A2D5A2D08002A
:100AB6000030831203133906031D632D00303806F8
:100AC600031D722D01308800240887000730FC00C2
:100AD6007D30FD00FD0B6D2DFC0B6D2DB02D003016
:100AE6003906031D782D01303806031D872D023087
:100AF6008800240887000730FC007D30FD00FD0BD0
:100B0600822DFC0B822DB02D00303906031D8D2D54
:100B160002303806031D9C2D043088002408870007
:100B26000730FC007D30FD00FD0B972DFC0B972D4B
:100B3600B02D00303906031DA22D03303806031DE3
:100B4600B02D08308800240887000730FC007D306F
:0C0B5600FD00FD0BAC2DFC0BAC2D0800CD
:100B6200C03083120313A400F930A500A430A600FC
:100B7200B030A7009930A8009230A9008230AA00B4
:100B8200F830AB008030AC009030AD000B30AE00DE
:100B9200AF01B001B1013230B200B301B401B5010D
:100BA200B601B701B801B901BA01BB01BC01BD016F
:100BB200BE01BF01C001C101C201B7242E24003011
:100BC20083123106031DE72D00303006031DF72D79
:100BD2002E08C7002F08C8003208C9003308CA000F
:100BE2003E08CB003F08CC003C241E2E00303106CC
:100BF200031DFD2D01303006031D0D2E3208C700E6
:100C02003308C8003C08C9003D08CA004108CB00AF
:100C12004208CC0066241E2E00303106031D132E1E
:100C220002303006031D162E1E2E00303106031D23
:0E0C32001C2E03303006031D1E2EE02D1F2E3B
:02400E004A2F37
:00000001FF
