:020000000E2BC5
:10000800FF00030E8301B6000A08B7008A017008D2
:10001800A0008B130B1D1B282D08023A031D19285D
:10002800AD01B00A0319B10A1A28AD0A0B118B1CCD
:100038002D2800302C06031D232800302B06031D15
:100048002A280130AB000030AC002C28AB01AC01F1
:100058008B108B1D30288B118B172008F000370868
:0C0068008A00360E8300FF0E7F0E090098
:10007400710DF80DF90D7408F8027508031C750F5D
:10008400F902F00DF10D0F30FC00710DF80DF90DB2
:100094007408701C5328F8027508031C750FF902C4
:1000A4005828F80775080318750FF907F00DF10DB6
:1000B400FC0B4728701864287408F807750803189F
:0800C400750FF90700000800A8
:1000CC008030831203134306F00080307002031D4E
:1000DC0071280030420203187C284208003CF000D2
:1000EC004308031C013EF101F10280284208F00094
:0600FC004308F1000800BA
:10010200C42801308312031388004208213E840070
:10011200000887000730FC007D30FD00FD0B8F28B2
:10012200FC0B8F28E628023088004208213E84001A
:10013200000887000730FC007D30FD00FD0B9F2882
:10014200FC0B9F28E628043088004208213E8400E8
:10015200000887000730FC007D30FD00FD0BAF2852
:10016200FC0BAF28E628083088004208213E8400B4
:10017200000887000730FC007D30FD00FD0BBF2822
:10018200FC0BBF28E6288312031300304506031D2B
:10019200CC28003044060319822800304506031D8E
:1001A200D428013044060319942800304506031D63
:1001B200DC28023044060319A42800304506031D3A
:0C01C200E428033044060319B4280800A8
:1001CE00831203137408003A031DF6287508003ACB
:1001DE00031DF628FF30F0007F30F1004F29831207
:1001EE000313FD01F901F8017108700403190034BD
:1001FE0071087506FA00FA1BFD09FB01F51F0C29A3
:10020E00F409F509F40A0319F50AF11F1329F00987
:10021E00F109F00A0319F10A71087504FA00FA1BC4
:10022E0028293A207B183B29FD1F0034F009F109DB
:10023E00F00A0319F10AF809F909F80A0319F90A7B
:10024E000034F51F3729F11B33297108F9007008A6
:10025E00F800F101F0011B29F101F001F00A003460
:10026E00F109F009FB0A1829F80A0319F90A7408AA
:10027E007802031D1B2975087902031D1B29F9013C
:10028E00F801F00A0319F10AF11F1B290000FF34CF
:02029E00080056
:0E02A0008312031335088A0034088200080018
:1002AE008030831203133F06F00080307002031D6E
:1002BE00622918303E020318B3290A30F4000030C8
:1002CE00F5003E08F0003F08F100E7207008C2007C
:1002DE007108C300C401C50181200A30F40000304A
:1002EE00F5003E08F0003F08F100E7207808F00026
:1002FE007908F1007008C2007108C3000130C40013
:10030E000030C50081200A30F4000030F5004008AE
:10031E00F0004108F100E7207008C2007108C30028
:10032E000230C4000030C50081200A30F4000030D5
:10033E00F5004008F0004108F100E7207808F000D1
:10034E007908F1007008C2007108C3000330C400C0
:10035E000030C5008120E729C201C301C401C501D7
:10036E008120C201C3010130C4000030C5008120CC
:10037E000A30F4000030F5004008F0004108F100AA
:10038E00E7207008C2007108C3000230C4000030BC
:10039E00C50081200A30F4000030F5004008F0005E
:1003AE004108F100E7207808F0007908F1007008A4
:1003BE00C2007108C3000330C4000030C5008120A4
:0203CE00080025
:1003D000803083120313F00080303F067002031D4B
:1003E000F3293E08003C03184F2A80303F06F000F6
:1003F00080307002031DFE290D303E0203184F2A83
:100400000A30F4000030F5003E08F0003F08F1002B
:10041000E7207008C2007108C300C401C501812033
:100420000A30F4000030F5003E08F0003F08F1000B
:10043000E7207808F0007908F1007008C200710820
:10044000C3000130C4000030C50081200A30F40030
:100450000030F5004008F0004108F100E720700886
:10046000C2007108C3000230C4000030C500812002
:100470000A30F4000030F5004008F0004108F100B7
:10048000E7207808F0007908F1007008C2007108D0
:10049000C3000330C4000030C5008120A72A0C30FF
:1004A0003E02C2000030031C013E3F02C300662032
:1004B0000A30F4000030F500E7207008C20071082F
:1004C000C300C401C50181200C303E02C2000030CF
:1004D000031C013E3F02C30066200A30F4000030D6
:1004E000F500E7207808F0007908F1007008C200F4
:1004F0007108C3000130C4000030C50081200A30FB
:10050000F4000030F5004008F0004108F100E72059
:100510007008C2007108C3000230C4000030C5007A
:1005200081200A30F4000030F5004008F000410856
:10053000F100E7207808F0007908F1007008C200A7
:100540007108C3000330C4000030C50081200800DA
:10055000831203133108003C031DB02A30083B3CD2
:100560000318C42AB001B101B20A0319B30A33084F
:10057000003C031DBD2A32083B3C0318C42AB201CB
:0A058000B301AE0A0319AF0A080028
:10058A008B170B178B160B168B15831603138112F9
:0C059A00011281110115811001140800EC
:1005A600EA2A831203133808BE003908BF003A0846
:1005B600C0003B08C100E821FC2A3808BE00390803
:1005C600BF003A08C0003B08C1005721FC2A83122D
:1005D600031300303D06031DF22A00303C060319C2
:1005E600D42A00303D06031DFA2A01303C060319C1
:0405F600E02A0800EF
:0A05FA00831603138701880108002F
:1006040050218A110A128000840AB40A0319B50A17
:08061400F003031D022B080096
:10061C00C03083120313A100F930A200A430A30050
:10062C00B030A4009930A5009230A6008230A7000B
:10063C00F830A8008030A9009030AA00AB01AC01C2
:10064C00AD010B30AE00AF01B001B1013230B200E0
:10065C00B301FD22C522A8222E08B8002F08B9002C
:10066C003208BA003308BB002B08BC002C08BD00B4
:06067C00D322312B402BBC
:02400E004A2F37
:00000001FF
