:02000000C22814
:10000800FF00030E8301C4000A08C5008A017008B6
:10001800A0008B130B1D1B28BF0A4C303F02031C8A
:100028001928BF01BD0A0319BE0A81010B118B17DC
:100038002008F00045088A00440E8300FF0E7F0E5A
:020048000900AD
:0E004A008312031343088A0042088200080054
:1000580083120313F801F9011030FC00710DF80D3B
:10006800F90D7408F8027508031C750FF9020318D6
:1000780044287408F80775080318750FF907031062
:0A008800F00DF10DFC0B322808000A
:0A009200831603138701880108009C
:10009C000A3083120313F4000030F5002108F0003D
:1000AC002208F1002C200A30F4000030F5002C203E
:1000BC007808F0007908F1007008AF007108B00002
:0200CC0008002A
:1000CE008B170B178B1683160313811201128111D6
:0C00DE0001158114011483128101080037
:1000EA0025208A110A128000840AC20A0319C30A47
:0800FA00F003031D7528080046
:100102000A3083120313F4000030F5003508F000C2
:100112003608F1002C207808F0007908F100700808
:08012200B1007108B2000800F1
:10012A000A3083120313F4000030F5003508F0009A
:10013A003608F1002C200A30F4000030F5002C209B
:10014A007808F0007908F1007008B3007108B4006B
:02015A0008009B
:10015C000A3083120313F4000030F5002108F0007C
:10016C002208F1002C207808F0007908F1007008C2
:08017C00A3007108A4000800B3
:100184003B3083120313A100A201A301A401C030D8
:10019400A500F930A600A430A700B030A80099301B
:1001A400A9009230AA008230AB00F830AC00803055
:1001B400AD009030AE00AF01B001B101B201B301A6
:1001C400B4010B30B500B601B701B801B901BA01E9
:1001D400BB01BC01BD01BE01BF01C001C101492079
:1001E40067203708253E8400000887000130880016
:1001F4000230FB004530FC00A930FD00FD0B002956
:10020400FC0B0029FB0B0029000000004008253EE0
:10021400840000088700023088000230FB0045306B
:10022400FC00A930FD00FD0B1529FC0B1529FB0B67
:100234001529000000003B08253E840000088700C3
:10024400043088000230FB004530FC00A930FD007A
:10025400FD0B2A29FC0B2A29FB0B2A29000000008C
:100264003908253E840000088700083088000230E1
:10027400FB004530FC00A930FD00FD0B3F29FC0BC1
:100284003F29FB0B3F2900000000952081204E20D0
:10029400AE203308B7003408B8003108C000320873
:1002A400C1002F08BB003008BC002308B900240893
:0602B400BA00F3285C29EA
:02400E004A2F37
:00000001FF
